:100000000C9457000C94CF010C94F8010C947400DC
:100010000C9474000C9474000C9474000C94740090
:100020000C9474000C9474000C9474000C94740080
:100030000C9474000C9474000C9474000C94740070
:100040000C9474000C9474000C9474000C94740060
:100050000C94740008000000BE922449123EABAA22
:10006000AA2ABECDCCCC4C3E00000080BEABAAAAD2
:10007000AA3E00000000BF000000803F000000001A
:1000800000084178D3BB4387D1133D190E3CC3BD53
:100090004282AD2B3E68EC8276BED98FE1A93E4C00
:1000A00080EFFFBE01C4FF7F3F000000000011246D
:1000B0001FBECFE5D8E0DEBFCDBF10E0A0E6B0E0C8
:1000C000EAE8F9E102C005900D92AC3CB107D9F71E
:1000D00020E0ACECB0E001C01D92A73DB207E1F713
:1000E0000E9419060C94C30C0C94000010BC83E30E
:1000F00089B9539A549A86E880BD08955D9BFECFD6
:100100008CB908955F9BFECF8CB108950F931F9318
:10011000CF938C01C0E0F801EC0FF11D80818111BB
:1001200004C0CF911F910F9108950E947E00CF5F70
:10013000F2CF8FB581608FBD8FB58D7F8FBD8EB5AE
:1001400088608EBD8EB58F7E8EBD8FB58F7B8FBD47
:100150008FB580688FBD8EB581608EBD8EB5826093
:100160008EBD8EB58B7F8EBD1BBC1ABC089590E0F2
:100170009BBD8ABD089541E0682F82E00C949202F5
:1001800040E0682F82E00C94920240E063E082E05D
:100190000E94210240E064E082E00E94210283E0AC
:1001A0000E94C00084E00E94C0008DE08A95F1F7B3
:1001B0000000089584E00E94C0008DE08A95F1F768
:1001C000000083E00E94C0008DE08A95F1F70000F6
:1001D00084E00E94BB008DE08A95F1F7000083E087
:1001E0000E94BB008DE08A95F1F70000089584E03D
:1001F0000E94BB008DE08A95F1F7000083E00E9429
:10020000C0008DE08A95F1F7000084E00E94C000F4
:100210008DE08A95F1F7000008950F931F93CF9317
:10022000DF93C7E0D0E0082F10E0C8010C2E02C019
:10023000959587950A94E2F780FF2FC084E00E948D
:10024000C0008DE08A95F1F7000083E00E94C000B5
:100250002DE02A95F1F7000083E00E94BB00219772
:1002600020F784E00E94C0002DE02A95F1F70000FD
:1002700083E00E94C0008DE08A95F1F7000064E001
:1002800082E00E940303C82F83E00E94BB008C2FF2
:10029000DF91CF911F910F91089584E00E94BB00E0
:1002A000D0CFEF92FF920F931F93CF93DF93082F3E
:1002B00084E00E94C000C7E0D0E010E0EE24E394A8
:1002C000F12C2DE02A95F1F7000083E00E94C00098
:1002D0008DE08A95F1F7000064E082E00E9403035C
:1002E000813039F4C7010C2E01C0880F0A94EAF757
:1002F000182B83E00E94BB00219718F784E00111BE
:100300001BC00E94BB002DE02A95F1F7000083E09E
:100310000E94C0008DE08A95F1F7000083E00E9402
:10032000BB0084E00E94C000812FDF91CF911F911C
:100330000F91FF90EF9008950E94C000E4CF8FB717
:1003400080688FBF08958FB78F778FBF089585B767
:10035000816085BF85B7826085BF8BB780648BBFA6
:10036000089585B7846085BF85B7886085BF8BB7E2
:1003700080688BBF0895009731F09093CF008093F1
:10038000CE0080E0089581E00895009731F09093C9
:10039000CD008093CC0080E0089581E008951F9205
:1003A0000F920FB60F9211242F933F934F935F93A9
:1003B0006F937F938F939F93AF93BF93EF93FF932D
:1003C000E091CE00F091CF00309709F00995FF91B0
:1003D000EF91BF91AF919F918F917F916F915F91BD
:1003E0004F913F912F910F900FBE0F901F90189536
:1003F0001F920F920FB60F9211242F933F934F939A
:100400005F936F937F938F939F93AF93BF93EF937C
:10041000FF93E091CC00F091CD00309709F0099561
:10042000FF91EF91BF91AF919F918F917F916F91CC
:100430005F914F913F912F910F900FBE0F901F90A2
:100440001895843008F064C0683008F061C08230CC
:10045000B9F1833009F44DC08130C9F0442319F05B
:10046000413061F008952BB381E090E001C0880F26
:100470006A95EAF7809582238BBB08958BB321E0C0
:1004800030E001C0220F6A95EAF7822BF5CF4423B2
:1004900019F0413061F0089528B381E090E001C087
:1004A000880F6A95EAF78095822388BB089588B300
:1004B00021E030E001C0220F6A95EAF7822BF5CFE8
:1004C000442319F0413061F0089525B381E090E0B4
:1004D00001C0880F6A95EAF78095822385BB08954D
:1004E00085B321E030E001C0220F6A95EAF7822B44
:1004F000F5CF442319F0413061F0089522B381E033
:1005000090E001C0880F6A95EAF78095822382BB4C
:10051000089582B321E030E001C0220F6A95EAF726
:10052000822BF5CF843008F064C0683008F061C0D9
:100530008230B9F1833009F44DC08130C9F04423D1
:1005400019F0413061F008952AB381E090E001C0D4
:10055000880F6A95EAF7809582238ABB08958AB34B
:1005600021E030E001C0220F6A95EAF7822BF5CF37
:10057000442319F0413061F0089527B381E090E001
:1005800001C0880F6A95EAF78095822387BB08959A
:1005900087B321E030E001C0220F6A95EAF7822B91
:1005A000F5CF442319F0413061F0089524B381E080
:1005B00090E001C0880F6A95EAF78095822384BB9A
:1005C000089584B321E030E001C0220F6A95EAF774
:1005D000822BF5CF442319F0413061F0089521B307
:1005E00081E090E001C0880F6A95EAF78095822348
:1005F00081BB089581B321E030E001C0220F6A95EC
:10060000EAF7822BF5CF8430B8F46830A8F4823052
:1006100079F0833079F0813049F089B390E002C0FD
:10062000959587956A95E2F78170089586B3F6CF20
:1006300083B3F4CF80B3F2CF80E00895843068F4C0
:10064000823041F0833041F0813011F06BBB08956E
:1006500068BB089565BB089562BB0895843068F453
:10066000823041F0833041F0813011F06ABB08954F
:1006700067BB089564BB089561BB0895813049F05C
:1006800030F0823041F0833041F080E0089589B34A
:10069000089586B3089583B3089580B308953E9A6C
:1006A0003F983D98309A319A329A379A089597B187
:1006B000907E97B997B1892B87B9369A349BFECF34
:1006C000349A84B195B1089522B708B600FE0CC0E3
:1006D00081E088BF8091D0009091D10001969093E5
:1006E000D1008093D00022B76091D0007091D100EA
:1006F00090E080E0982F872F762F6627622B089551
:1007000040E060E080E00E94210225E02A95F1F7B8
:10071000000041E060E080E00E9421028AE18A95C9
:10072000F1F700C040E060E080E00E94210213BECB
:1007300012BE81E088BF1092D1001092D00083E0F9
:1007400083BF66E083E00E940303882311F113BE98
:1007500012BE81E088BF1092D1001092D00083E0D9
:1007600083BF66E083E00E940303813021F10E9491
:10077000640313BE26E0660F771F881F991F2A9512
:10078000D1F720ED31E040E050E00E94AF09C9010F
:1007900008950E94640346E0660F771F881F991F23
:1007A0004A95D1F76838794A8340910550F213BED3
:1007B00090E080E008950E94640336E0660F771FA2
:1007C000881F991F3A95D1F76838734A844091057C
:1007D00040F2EDCF089584E00E945703BC0190E001
:1007E00080E00E94060820E030E040EA50E40E94E9
:1007F0000D0920E030E040E85AE30E940D092DEC9D
:100800003CEC4CE45EE30E94650720E030E04AE700
:1008100054E40E940D090E94D707CB010895CF929E
:10082000DF92EF92FF9282E00E9457039C012150D9
:1008300031092E3F334008F064C0BC0190E080E0F5
:100840000E9406089B01AC0160E070E080E894E43F
:100850000E94650720E030E040E85FE30E94F30675
:100860009B01AC0160E070E48CE196E40E946507B6
:1008700020E030E44CE156E40E9465070E94C50880
:1008800020E030EE46E755E40E9465072FE03FEC9C
:100890004BE55BE30E94F4069B01AC0160E070E075
:1008A00080E89FE30E94650723E333E948E853E4C7
:1008B0000E94F3066B017C0120E030E0A9010E9458
:1008C000600787FD1AC020E030E04EE753E4C7011F
:1008D000B6010E94B808181634F4C12CD12C8EE74A
:1008E000E82E83E4F82EC701B6010E94D707862FB1
:1008F000FF90EF90DF90CF900895C12CD12C76011E
:10090000F2CF8FEFF5CFCF93DF930E94C5002FEF8B
:1009100080E792E0215080409040E1F700C0000065
:10092000D3E00E94DA0080ED0E940D01C82F8BE613
:100930000E940D01C82B80E00E940D01C82B0E946F
:10094000F700CC2341F08FE19EE40197F1F700C05E
:100950000000D15031F7DF91CF9108958F929F928F
:10096000AF92BF92CF92DF92EF92FF920F931F93BD
:10097000CF93DF9300D000D000D0CDB7DEB76C01AD
:100980007B018A010E94DA0080ED0E940D0188231C
:10099000F1F00E94F700F60111821082F701118236
:1009A0001082F8011182108226960FB6F894DEBFED
:1009B0000FBECDBFDF91CF911F910F91FF90EF90B0
:1009C000DF90CF90BF90AF909F908F9008958BE372
:1009D0000E940D010E94DA0081ED0E940D0181113B
:1009E000D8CFCE0101965C014E0196E0890E911C94
:1009F00080E00E945101F50181935F01E815F9053E
:100A0000B9F781E00E945101B82E0E94F700898158
:100A10009A81982789279827F601918380838B8173
:100A20009C81982789279827F701918380838D815E
:100A3000982F8B2DF80191838083B6CF0C94990069
:100A400081110AC041E060E082E00E94210240E0A2
:100A500061E082E00C942102813039F440E060E0F2
:100A600082E00E94210241E0F3CF08950C94B70088
:100A700080E00E94B70040E060E082E00E94210236
:100A800040E061E082E00C9421028091D3009091DB
:100A9000D400A091D500B091D6000196A11DB11D42
:100AA0008093D3009093D400A093D500B093D60048
:100AB00062E082E00E940303811103C01092D20021
:100AC000089581E08093D200089540E062E083E0E1
:100AD0000E94920240E062E082E00E94920241E0C5
:100AE00062E083E00E94210241E062E082E00E9435
:100AF000210285E495E00E94BB01811102C00C94A3
:100B0000A70108952FB7F8946091D3007091D40095
:100B10008091D5009091D6002FBF08958FB7F8949B
:100B20001092D3001092D4001092D5001092D600EB
:100B30008FBF08958091D20008954F925F926F9277
:100B40007F928F929F92AF92BF92CF92DF92EF925D
:100B5000FF929C01892B09F448C08FB7F89440900C
:100B6000D3005090D4006090D5007090D6001092C1
:100B7000D3001092D4001092D5001092D6008FBFEF
:100B8000A6E7B1E00E94D1096B017C014B015C0139
:100B9000B694A79497948794C501B4016095709515
:100BA0008095909520E63AEE40E050E00E94AF0933
:100BB000421653066406750610F4A3019201A0E6DE
:100BC000BAEE0E94E009680D791D8A1D9B1DA701E0
:100BD00096010E94AF092115310581E048075105B2
:100BE00020F02FEF3FEF40E050E0C901FF90EF9081
:100BF000DF90CF90BF90AF909F908F907F906F903D
:100C00005F904F90089541E061E080E00C942102F4
:100C100040E061E080E00C94210261E080E00E940D
:100C2000030340E0813009F041E061E080E00C9492
:100C30002102CF93DF93CDB7DEB7CA56D1090FB6E5
:100C4000F894DEBF0FBECDBF84B7806884BF84BF79
:100C500041E060E082E00E94920241E061E082E0D7
:100C60000E94920241E065E083E00E94920240E02F
:100C700062E083E00E94920240E062E082E00E9433
:100C8000920241E062E083E00E94210241E060E0E4
:100C900080E00E94920240E066E083E00E949202BF
:100CA00041E061E080E00E94920240E062E080E08A
:100CB0000E94920240E064E080E00E94920241E0E3
:100CC00061E083E00E94920240E060E083E00E94E5
:100CD00092020E944F030E94760080E690E00E94FC
:100CE00086000E941E050E9465050E9483040E94E2
:100CF0009F0110E080EAE82E80E0F82ECE010196F8
:100D00006C010E94800301970E9790F40E943805B1
:100D10000E94030682E890E00E9486009FEF24E391
:100D20008CE0915020408040E1F700C00000E9CF06
:100D30000E94080680E00E94200586E90E94360590
:100D40001F5F143108F447C00E948205162F072F39
:100D5000B82EA92E0E94EB03982E892E0E940F0414
:100D6000782EAE014B595F4FBE0169597F4FCE01BE
:100D700087599F4F0E94AE04A7968FADA7978F9378
:100D8000A6968FADA6978F93A9968FADA9978F93AF
:100D9000A8968FADA8978F93AB968FADAB978F9397
:100DA000AA968FADAA978F931F927F928F929F9250
:100DB000AF92BF920F931F93FF92EF92DF92CF9269
:100DC0000E94EB09C6010E9486000FB6F894DEBFB0
:100DD0000FBECDBF10E09FE728E381E09150204097
:100DE0008040E1F7A2CF5058BB27AA270E940B07EB
:100DF0000C947E080E94700838F00E94770820F05A
:100E000039F49F3F19F426F40C946D080EF4E09524
:100E1000E7FB0C946708E92F0E948F0858F3BA1774
:100E2000620773078407950720F079F4A6F50C9400
:100E3000B1080EF4E0950B2EBA2FA02D0B01B901CD
:100E400090010C01CA01A0011124FF27591B99F040
:100E5000593F50F4503E68F11A16F040A22F232F4C
:100E6000342F4427585FF3CF469537952795A7959C
:100E7000F0405395C9F77EF41F16BA0B620B730B43
:100E8000840BBAF09150A1F0FF0FBB1F661F771FB4
:100E9000881FC2F70EC0BA0F621F731F841F48F469
:100EA000879577956795B795F7959E3F08F0B0CFF2
:100EB0009395880F08F09927EE0F979587950895D9
:100EC0000E94430808F481E008950E9479070C9479
:100ED0007E080E94770858F00E94700840F029F4BC
:100EE0005F3F29F00C94670851110C94B2080C94E0
:100EF0006D080E948F0868F39923B1F3552391F38D
:100F0000951B550BBB27AA2762177307840738F078
:100F10009F5F5F4F220F331F441FAA1FA9F335D0D5
:100F20000E2E3AF0E0E832D091505040E695001C89
:100F3000CAF72BD0FE2F29D0660F771F881FBB1F43
:100F4000261737074807AB07B0E809F0BB0B802D21
:100F5000BF01FF2793585F4F3AF09E3F510578F04D
:100F60000C9467080C94B2085F3FE4F3983ED4F306
:100F7000869577956795B795F7959F5FC9F7880F21
:100F8000911D9695879597F90895E1E0660F771F73
:100F9000881FBB1F621773078407BA0720F0621B04
:100FA000730B840BBA0BEE1F88F7E09508950E942F
:100FB000970888F09F5798F0B92F9927B751B0F04C
:100FC000E1F0660F771F881F991F1AF0BA95C9F7CD
:100FD00014C0B13091F00E94B108B1E008950C94B2
:100FE000B108672F782F8827B85F39F0B93FCCF365
:100FF000869577956795B395D9F73EF4909580954A
:10100000709561957F4F8F4F9F4F0895E89409C069
:1010100097FB3EF490958095709561957F4F8F4F2B
:101020009F4F9923A9F0F92F96E9BB279395F69541
:10103000879577956795B795F111F8CFFAF4BB0FBF
:1010400011F460FF1BC06F5F7F4F8F4F9F4F16C023
:10105000882311F096E911C0772321F09EE8872FAD
:10106000762F05C0662371F096E8862F70E060E069
:101070002AF09A95660F771F881FDAF7880F9695E2
:10108000879597F90895990F0008550FAA0BE0E886
:10109000FEEF16161706E807F907C0F0121613063A
:1010A000E407F50798F0621B730B840B950B39F47A
:1010B0000A2661F0232B242B252B21F408950A26E0
:1010C00009F4A140A6958FEF811D811D089597F920
:1010D0009F6780E870E060E008959FEF80EC0895DE
:1010E00000240A9416161706180609060895002407
:1010F0000A9412161306140605060895092E039481
:10110000000C11F4882352F0BB0F40F4BF2B11F4F4
:1011100060FF04C06F5F7F4F8F4F9F4F089557FD53
:101120009058440F551F59F05F3F71F04795880F55
:1011300097FB991F61F09F3F79F0879508951216EC
:1011400013061406551FF2CF4695F1DF08C0161698
:1011500017061806991FF1CF869571056105089449
:101160000895E894BB2766277727CB0197F9089560
:101170000E94430808F48FEF089516F00C947A0942
:101180000C946D0868940C9467080E949708A8F363
:101190009923C1F3AEF3DF93CF931F930F93FF9285
:1011A000C92FDD2788232AF02197660F771F881F14
:1011B000DAF720E030E040E85FEB9FE3883920F089
:1011C000803E38F021968F770E94F406E4E5F0E047
:1011D00004C00E94F406E1E8F0E00E9488098B0157
:1011E000BE01EC01FB2E6F5771097595771F880BB7
:1011F000990B0E94080828E132E741E35FE30E946F
:101200002009AF2D9801AE01FF900F911F91CF9152
:10121000DF910E940B070C947E080E9420090C9419
:101220007E080E94700838F00E94770820F095230D
:1012300011F00C9467080C946D0811240C94B208FA
:101240000E948F0870F3959FC1F3950F50E0551FD2
:10125000629FF001729FBB27F00DB11D639FAA270B
:10126000F00DB11DAA1F649F6627B00DA11D661F5A
:10127000829F2227B00DA11D621F739FB00DA11D7B
:10128000621F839FA00D611D221F749F3327A00D35
:10129000611D231F849F600D211D822F762F6A2FD1
:1012A00011249F5750409AF0F1F088234AF0EE0F36
:1012B000FF1FBB1F661F771F881F91505040A9F763
:1012C0009E3F510580F00C9467080C94B2085F3F74
:1012D000E4F3983ED4F3869577956795B795F7959F
:1012E000E7959F5FC1F7FE2B880F911D9695879517
:1012F00097F908959F3F31F0915020F487957795A5
:101300006795B795880F911D9695879597F90895DC
:10131000DF93CF931F930F93FF92EF92DF927B01A6
:101320008C01689406C0DA2EEF010E942009FE01AC
:10133000E894A5912591359145915591A6F3EF013A
:101340000E940B07FE019701A801DA9469F7DF906C
:10135000EF90FF900F911F91CF91DF910895A1E23F
:101360001A2EAA1BBB1BFD010DC0AA1FBB1FEE1F1F
:10137000FF1FA217B307E407F50720F0A21BB30B6A
:10138000E40BF50B661F771F881F991F1A9469F7E6
:1013900060957095809590959B01AC01BD01CF0142
:1013A0000895A29FB001B39FC001A39F700D811D3E
:1013B0001124911DB29F700D811D1124911D08955E
:1013C0000E94D109A59F900DB49F900DA49F800D00
:1013D000911D11240895AEE0B0E0E1EFF9E00C9426
:1013E0009A0C0D891E8986E08C831A8309838FEFFE
:1013F0009FE79E838D83AE01475E5F4F6F89788D37
:10140000CE0101960E940E0A2F813885020F131F0C
:10141000F80110822E96E4E00C94B60CABE0B0E03C
:10142000E4E1FAE00C948C0C7C013B018A01FC01A4
:1014300017821682838181FFC8C1CE0101965C01AB
:10144000F7019381F30193FD859193FF81913F0112
:10145000882309F453C1853239F493FD859193FFB4
:1014600081913F01853229F4B70190E00E94FE0B83
:10147000E7CF912C212C312CFFE1F31538F08B3282
:1014800011F190F4803209F1833229F137FC3CC02C
:1014900020ED280F2A3050F536FE20C08AE0989EB5
:1014A000200D1124922E06C08D3291F0803371F7F9
:1014B000689430F8F30193FD859193FF81913F018A
:1014C0008111DACF21C0689431F8689432F8F2CFF4
:1014D000689433F8EFCF689434F8ECCFEAE02E9EAE
:1014E000200D1124222E689435F8E4CF8E3229F491
:1014F00036FC04C1689436F8DDCF8C3619F4689454
:1015000037F8D8CF8836B1F2982F9F7D9554933015
:10151000E0F08336A1F18337C1F1833509F063C070
:101520002801F2E04F0E511CF801C080D180692DD6
:1015300070E036FC02C06FEF7FEFC6010E94E80B3F
:101540004C01689437F882010AC00C5F1F4FFFE31B
:10155000F98388248394912C6501E89437F833FE4D
:101560002DC0522C8114910471F5552009F468CFD7
:10157000B70180E290E00E94FE0B5A94F6CFF8018A
:10158000808189830E5F1F4FE4CF2801F2E04F0E68
:10159000511CF801C080D180692D70E036FC02C07A
:1015A0006FEF7FEFC6010E94F30B4C018201D5CF94
:1015B000B70180E290E00E94FE0B2A9428141904DF
:1015C00009F0B0F7CECFF60137FC859137FE819157
:1015D0006F01B70190E00E94FE0B51105A94F1E0A8
:1015E0008F1A9108BFCF843619F0893609F077C079
:1015F000F80137FE6BC060817181828193810C5F3D
:101600001F4FF32DFF763F2E97FF09C090958095D1
:10161000709561957F4F8F4F9F4F689437F82AE000
:1016200030E0A5010E942E0CC82ECA188C2C432C29
:1016300036FE0CC0E89440F8C91440F434FE05C0EE
:1016400032FC03C0F32DFE7E4F2E892C44FE95C044
:10165000FE01EC0DF11D8081803309F087C0242D3F
:10166000297E422E842D8870582E43FC95C040FE62
:101670008FC09C2C821418F42C0C922C981844FEC9
:1016800091C0B70180E390E00E94FE0B42FE09C0CA
:1016900088E790E041FE02C088E590E0B7010E9433
:1016A000FE0BC91408F48AC0CA94D12C9FEFC91A42
:1016B000D90ACA0CDB1CF60182916F01B70190E0D8
:1016C0000E94FE0BAC14BD04B1F74FCF6081718155
:1016D000072E000C880B990B0E5F1F4F92CFD32C57
:1016E000E894D4F82AE030E0853739F1232D297FBA
:1016F000D22E8F3601F148F48835A9F0F7018681A2
:1017000097812B96E2E10C94A80C803749F088373A
:10171000A9F7D4FE02C06894D2F820E130E00DC0F1
:101720006894D4F8F6CF34FE03C0822F8660D82E9A
:1017300020E132E002C028E030E0F801D7FE0FC01F
:1017400060817181828193810C5F1F4FA5010E948E
:101750002E0CC82ECA183D2CE89437F867CF60814C
:10176000718190E080E00E5F1F4FF0CF42FC02C01D
:10177000839478CF8394839475CF842D867809F4ED
:1017800071CFF6CFB70180E290E00E94FE0B839408
:101790008214C0F3512C73CF522C5818821408F4C1
:1017A0006ECFF8CF842D867809F47BCF8BE241FE93
:1017B00080E247FC8DE2B70190E071CFB70180E392
:1017C00090E00E94FE0B9A946CCF8FEF9FEF99CF21
:1017D000FC010590615070400110D8F780959095FC
:1017E0008E0F9F1F0895FC01615070400190011001
:1017F000D8F7809590958E0F9F1F08950F931F9394
:10180000CF93DF93182F092FEB018B8181FD09C046
:101810001FEF0FEF812F902FDF91CF911F910F912D
:10182000089582FF14C02E813F818C819D812817ED
:1018300039073CF4E881F981CF01019699838883C7
:1018400010838E819F8101969F838E83E3CFE885ED
:10185000F985812F0995892BA1F3DACFFA01AA27FF
:10186000283051F1203181F1E8946F936E7F6E5FE3
:101870007F4F8F4F9F4FAF4FB1E03ED0B4E03CD091
:10188000670F781F891F9A1FA11D680F791F8A1F74
:10189000911DA11D6A0F711D811D911DA11D20D0DB
:1018A00009F468943F912AE0269F11243019305D95
:1018B0003193DEF6CF010895462F4770405D419386
:1018C000B3E00FD0C9F7F6CF462F4F70405D4A33D3
:1018D00018F0495D31FD4052419302D0A9F7EACF9B
:1018E000B4E0A6959795879577956795BA95C9F7CA
:1018F00000976105710508959B01AC010A2E0694BD
:101900005795479537952795BA95C9F7620F731F75
:10191000841F951FA01D08952F923F924F925F92B2
:101920006F927F928F929F92AF92BF92CF92DF92EF
:10193000EF92FF920F931F93CF93DF93CDB7DEB754
:10194000CA1BDB0B0FB6F894DEBF0FBECDBF0994E8
:101950002A88398848885F846E847D848C849B843F
:10196000AA84B984C884DF80EE80FD800C811B814D
:10197000AA81B981CE0FD11D0FB6F894DEBF0FBE7C
:0A198000CDBFED010895F894FFCFEC
:10198A0041546D656761333220636F6E74726F6C98
:10199A002073797374656D20737461727465640D54
:1019AA000A005741524E494E473A204F62737461BA
:1019BA00636C65204465746563746564210D0A006F
:1019CA00503A256C752C20563A2575206D562C20D8
:1019DA00543A257520432C20583A25642C20593A2C
:0C19EA0025642C205A3A25640D0A0000E8
:00000001FF
